{
  "_format": "hh-sol-artifact-1",
  "contractName": "Transactions",
  "sourceName": "contracts/Transactions.sol",
  "abi": [
    {
      "anonymous": false,
      "inputs": [
        {
          "indexed": false,
          "internalType": "address",
          "name": "sender",
          "type": "address"
        },
        {
          "indexed": false,
          "internalType": "address",
          "name": "receiver",
          "type": "address"
        },
        {
          "indexed": false,
          "internalType": "uint256",
          "name": "amount",
          "type": "uint256"
        },
        {
          "indexed": false,
          "internalType": "string",
          "name": "message",
          "type": "string"
        },
        {
          "indexed": false,
          "internalType": "uint256",
          "name": "timestamp",
          "type": "uint256"
        },
        {
          "indexed": false,
          "internalType": "string",
          "name": "keyword",
          "type": "string"
        }
      ],
      "name": "Transfer",
      "type": "event"
    },
    {
      "inputs": [
        {
          "internalType": "address payable",
          "name": "receiver",
          "type": "address"
        },
        {
          "internalType": "uint256",
          "name": "amount",
          "type": "uint256"
        },
        {
          "internalType": "string",
          "name": "message",
          "type": "string"
        },
        {
          "internalType": "string",
          "name": "keyword",
          "type": "string"
        }
      ],
      "name": "publishTransaction",
      "outputs": [],
      "stateMutability": "nonpayable",
      "type": "function"
    }
  ],
  "bytecode": "0x608060405234801561001057600080fd5b5061049a806100206000396000f3fe608060405234801561001057600080fd5b506004361061002b5760003560e01c80637d0ee35714610030575b600080fd5b61004a60048036038101906100459190610125565b61004c565b005b7f416cfa4330a4565f45c2fd2dd4826a83a37443aba2ce6f79477c7355afac35fa3385858542866040516100859695949392919061021e565b60405180910390a150505050565b60006100a66100a1846102b2565b61028d565b9050828152602081018484840111156100be57600080fd5b6100c9848285610383565b509392505050565b6000813590506100e081610436565b92915050565b600082601f8301126100f757600080fd5b8135610107848260208601610093565b91505092915050565b60008135905061011f8161044d565b92915050565b6000806000806080858703121561013b57600080fd5b6000610149878288016100d1565b945050602061015a87828801610110565b935050604085013567ffffffffffffffff81111561017757600080fd5b610183878288016100e6565b925050606085013567ffffffffffffffff8111156101a057600080fd5b6101ac878288016100e6565b91505092959194509250565b6101c18161034d565b82525050565b6101d0816102ff565b82525050565b60006101e1826102e3565b6101eb81856102ee565b93506101fb818560208601610392565b61020481610425565b840191505092915050565b61021881610343565b82525050565b600060c08201905061023360008301896101c7565b61024060208301886101b8565b61024d604083018761020f565b818103606083015261025f81866101d6565b905061026e608083018561020f565b81810360a083015261028081846101d6565b9050979650505050505050565b60006102976102a8565b90506102a382826103c5565b919050565b6000604051905090565b600067ffffffffffffffff8211156102cd576102cc6103f6565b5b6102d682610425565b9050602081019050919050565b600081519050919050565b600082825260208201905092915050565b600061030a82610323565b9050919050565b600061031c82610323565b9050919050565b600073ffffffffffffffffffffffffffffffffffffffff82169050919050565b6000819050919050565b60006103588261035f565b9050919050565b600061036a82610371565b9050919050565b600061037c82610323565b9050919050565b82818337600083830152505050565b60005b838110156103b0578082015181840152602081019050610395565b838111156103bf576000848401525b50505050565b6103ce82610425565b810181811067ffffffffffffffff821117156103ed576103ec6103f6565b5b80604052505050565b7f4e487b7100000000000000000000000000000000000000000000000000000000600052604160045260246000fd5b6000601f19601f8301169050919050565b61043f81610311565b811461044a57600080fd5b50565b61045681610343565b811461046157600080fd5b5056fea26469706673582212209f87859c4d99df745f4ae5a6d2fc8e11a4f9f5df546e7a9a7e87d244e3f896f264736f6c63430008040033",
  "linkReferences": {},
  "deployedLinkReferences": {}
}